{"abi":[{"type":"constructor","inputs":[{"name":"_subId","type":"uint64","internalType":"uint64"},{"name":"_callbackGasLimit","type":"uint32","internalType":"uint32"},{"name":"_donId","type":"bytes32","internalType":"bytes32"},{"name":"_router","type":"address","internalType":"address"}],"stateMutability":"nonpayable"},{"type":"function","name":"DEFAULT_ADMIN_ROLE","inputs":[],"outputs":[{"name":"","type":"bytes32","internalType":"bytes32"}],"stateMutability":"view"},{"type":"function","name":"getRoleAdmin","inputs":[{"name":"role","type":"bytes32","internalType":"bytes32"}],"outputs":[{"name":"","type":"bytes32","internalType":"bytes32"}],"stateMutability":"view"},{"type":"function","name":"grantRole","inputs":[{"name":"role","type":"bytes32","internalType":"bytes32"},{"name":"account","type":"address","internalType":"address"}],"outputs":[],"stateMutability":"nonpayable"},{"type":"function","name":"handleOracleFulfillment","inputs":[{"name":"requestId","type":"bytes32","internalType":"bytes32"},{"name":"response","type":"bytes","internalType":"bytes"},{"name":"err","type":"bytes","internalType":"bytes"}],"outputs":[],"stateMutability":"nonpayable"},{"type":"function","name":"hasRole","inputs":[{"name":"role","type":"bytes32","internalType":"bytes32"},{"name":"account","type":"address","internalType":"address"}],"outputs":[{"name":"","type":"bool","internalType":"bool"}],"stateMutability":"view"},{"type":"function","name":"renounceRole","inputs":[{"name":"role","type":"bytes32","internalType":"bytes32"},{"name":"callerConfirmation","type":"address","internalType":"address"}],"outputs":[],"stateMutability":"nonpayable"},{"type":"function","name":"retryFailedRequest","inputs":[{"name":"_failedRequestId","type":"bytes32","internalType":"bytes32"}],"outputs":[],"stateMutability":"nonpayable"},{"type":"function","name":"revokeRole","inputs":[{"name":"role","type":"bytes32","internalType":"bytes32"},{"name":"account","type":"address","internalType":"address"}],"outputs":[],"stateMutability":"nonpayable"},{"type":"function","name":"s_requestStorage","inputs":[{"name":"requestId","type":"bytes32","internalType":"bytes32"}],"outputs":[{"name":"response","type":"bytes","internalType":"bytes"},{"name":"erro","type":"bytes","internalType":"bytes"},{"name":"isAvailableToRetry","type":"bool","internalType":"bool"},{"name":"isValid","type":"bool","internalType":"bool"}],"stateMutability":"view"},{"type":"function","name":"setDonHostedSecretsSlotId","inputs":[{"name":"_slot","type":"uint8","internalType":"uint8"}],"outputs":[],"stateMutability":"nonpayable"},{"type":"function","name":"setDonHostedSecretsVersion","inputs":[{"name":"_secretsVersion","type":"uint64","internalType":"uint64"}],"outputs":[],"stateMutability":"nonpayable"},{"type":"function","name":"supportsInterface","inputs":[{"name":"interfaceId","type":"bytes4","internalType":"bytes4"}],"outputs":[{"name":"","type":"bool","internalType":"bool"}],"stateMutability":"view"},{"type":"function","name":"validateStorage","inputs":[{"name":"_storageAddress","type":"address","internalType":"address"}],"outputs":[],"stateMutability":"nonpayable"},{"type":"event","name":"MainnetConnection_CLFunctionsRequestInitiated","inputs":[{"name":"requestId","type":"bytes32","indexed":false,"internalType":"bytes32"}],"anonymous":false},{"type":"event","name":"MainnetConnection_DonHostedSecretsSlotUpdated","inputs":[{"name":"slot","type":"uint8","indexed":false,"internalType":"uint8"}],"anonymous":false},{"type":"event","name":"MainnetConnection_DonHostedSecretsVersionUpdated","inputs":[{"name":"secretsVersion","type":"uint64","indexed":false,"internalType":"uint64"}],"anonymous":false},{"type":"event","name":"MainnetConnection_RequestFailedAndItsAvailableToRetry","inputs":[{"name":"requestId","type":"bytes32","indexed":false,"internalType":"bytes32"},{"name":"err","type":"bytes","indexed":false,"internalType":"bytes"}],"anonymous":false},{"type":"event","name":"MainnetConnection_RequestFailedBecauseStudentDoesNotHaveAProfile","inputs":[{"name":"err","type":"bytes","indexed":false,"internalType":"bytes"}],"anonymous":false},{"type":"event","name":"MainnetConnection_RequestSucceed","inputs":[{"name":"requestId","type":"bytes32","indexed":false,"internalType":"bytes32"},{"name":"response","type":"bytes","indexed":false,"internalType":"bytes"}],"anonymous":false},{"type":"event","name":"RequestFulfilled","inputs":[{"name":"id","type":"bytes32","indexed":true,"internalType":"bytes32"}],"anonymous":false},{"type":"event","name":"RequestSent","inputs":[{"name":"id","type":"bytes32","indexed":true,"internalType":"bytes32"}],"anonymous":false},{"type":"event","name":"RoleAdminChanged","inputs":[{"name":"role","type":"bytes32","indexed":true,"internalType":"bytes32"},{"name":"previousAdminRole","type":"bytes32","indexed":true,"internalType":"bytes32"},{"name":"newAdminRole","type":"bytes32","indexed":true,"internalType":"bytes32"}],"anonymous":false},{"type":"event","name":"RoleGranted","inputs":[{"name":"role","type":"bytes32","indexed":true,"internalType":"bytes32"},{"name":"account","type":"address","indexed":true,"internalType":"address"},{"name":"sender","type":"address","indexed":true,"internalType":"address"}],"anonymous":false},{"type":"event","name":"RoleRevoked","inputs":[{"name":"role","type":"bytes32","indexed":true,"internalType":"bytes32"},{"name":"account","type":"address","indexed":true,"internalType":"address"},{"name":"sender","type":"address","indexed":true,"internalType":"address"}],"anonymous":false},{"type":"event","name":"StorageValidator_GetMessageFailed","inputs":[{"name":"student","type":"address","indexed":false,"internalType":"address"},{"name":"getImplementationError","type":"bytes","indexed":false,"internalType":"bytes"}],"anonymous":false},{"type":"event","name":"StorageValidator_SetMessageFailed","inputs":[{"name":"student","type":"address","indexed":false,"internalType":"address"},{"name":"errorEmitted","type":"bytes","indexed":false,"internalType":"bytes"}],"anonymous":false},{"type":"event","name":"StorageValidator_WrongReturn","inputs":[{"name":"student","type":"address","indexed":false,"internalType":"address"},{"name":"messageStored","type":"string","indexed":false,"internalType":"string"},{"name":"expectedMessage","type":"string","indexed":false,"internalType":"string"}],"anonymous":false},{"type":"error","name":"AccessControlBadConfirmation","inputs":[]},{"type":"error","name":"AccessControlUnauthorizedAccount","inputs":[{"name":"account","type":"address","internalType":"address"},{"name":"neededRole","type":"bytes32","internalType":"bytes32"}]},{"type":"error","name":"EmptyArgs","inputs":[]},{"type":"error","name":"EmptySource","inputs":[]},{"type":"error","name":"MainnetConnection_RequestNotFulfilledOrSucceeded","inputs":[{"name":"failedRequestId","type":"bytes32","internalType":"bytes32"}]},{"type":"error","name":"MainnetConnection_UnexpectedRequestID","inputs":[{"name":"requestId","type":"bytes32","internalType":"bytes32"}]},{"type":"error","name":"NoInlineSecrets","inputs":[]},{"type":"error","name":"OnlyRouterCanFulfill","inputs":[]},{"type":"error","name":"Validator_AddressAlreadyStored","inputs":[{"name":"_contract","type":"address","internalType":"address"}]},{"type":"error","name":"Validator_InvalidAddress","inputs":[{"name":"_testContract","type":"address","internalType":"address"}]}],"bytecode":{"object":"0x610100604052348015610010575f80fd5b506040516138f33803806138f38339818101604052810190610032919061032b565b83838383808073ffffffffffffffffffffffffffffffffffffffff1660808173ffffffffffffffffffffffffffffffffffffffff1681525050508367ffffffffffffffff1660a08167ffffffffffffffff16815250508263ffffffff1660c08163ffffffff16815250508160e081815250506100b65f801b336100c460201b60201c565b50505050505050505061038f565b5f6100d583836101b960201b60201c565b6101af576001805f8581526020019081526020015f205f015f8473ffffffffffffffffffffffffffffffffffffffff1673ffffffffffffffffffffffffffffffffffffffff1681526020019081526020015f205f6101000a81548160ff02191690831515021790555061014c61021d60201b60201c565b73ffffffffffffffffffffffffffffffffffffffff168273ffffffffffffffffffffffffffffffffffffffff16847f2f8788117e7eff1d82e926ec794901d17c78024a50270940304540a733656f0d60405160405180910390a4600190506101b3565b5f90505b92915050565b5f60015f8481526020019081526020015f205f015f8373ffffffffffffffffffffffffffffffffffffffff1673ffffffffffffffffffffffffffffffffffffffff1681526020019081526020015f205f9054906101000a900460ff16905092915050565b5f33905090565b5f80fd5b5f67ffffffffffffffff82169050919050565b61024481610228565b811461024e575f80fd5b50565b5f8151905061025f8161023b565b92915050565b5f63ffffffff82169050919050565b61027d81610265565b8114610287575f80fd5b50565b5f8151905061029881610274565b92915050565b5f819050919050565b6102b08161029e565b81146102ba575f80fd5b50565b5f815190506102cb816102a7565b92915050565b5f73ffffffffffffffffffffffffffffffffffffffff82169050919050565b5f6102fa826102d1565b9050919050565b61030a816102f0565b8114610314575f80fd5b50565b5f8151905061032581610301565b92915050565b5f805f806080858703121561034357610342610224565b5b5f61035087828801610251565b94505060206103618782880161028a565b9350506040610372878288016102bd565b925050606061038387828801610317565b91505092959194509250565b60805160a05160c05160e05161352a6103c95f395f6114a901525f61148801525f61146701525f818161030d0152611bac015261352a5ff3fe608060405234801561000f575f80fd5b50600436106100cd575f3560e01c8063a217fddf1161008a578063d547741f11610064578063d547741f1461020b578063d9dee3c214610227578063e15e017a14610243578063fdb742d914610276576100cd565b8063a217fddf146101b5578063bda54ca7146101d3578063c27e26cb146101ef576100cd565b806301ffc9a7146100d15780630ca7617514610101578063248a9ca31461011d5780632f2ff15d1461014d57806336568abe1461016957806391d1485414610185575b5f80fd5b6100eb60048036038101906100e69190612475565b610292565b6040516100f891906124ba565b60405180910390f35b61011b60048036038101906101169190612642565b61030b565b005b610137600480360381019061013291906126ca565b6103cd565b6040516101449190612704565b60405180910390f35b61016760048036038101906101629190612777565b6103ea565b005b610183600480360381019061017e9190612777565b61040c565b005b61019f600480360381019061019a9190612777565b610487565b6040516101ac91906124ba565b60405180910390f35b6101bd6104eb565b6040516101ca9190612704565b60405180910390f35b6101ed60048036038101906101e891906126ca565b6104f1565b005b610209600480360381019061020491906127eb565b610796565b005b61022560048036038101906102209190612777565b6107f7565b005b610241600480360381019061023c9190612816565b610819565b005b61025d600480360381019061025891906126ca565b610e02565b60405161026d94939291906128a1565b60405180910390f35b610290600480360381019061028b919061292f565b610f54565b005b5f7f7965db0b000000000000000000000000000000000000000000000000000000007bffffffffffffffffffffffffffffffffffffffffffffffffffffffff1916827bffffffffffffffffffffffffffffffffffffffffffffffffffffffff19161480610304575061030382610fc4565b5b9050919050565b7f000000000000000000000000000000000000000000000000000000000000000073ffffffffffffffffffffffffffffffffffffffff163373ffffffffffffffffffffffffffffffffffffffff1614610390576040517fc6829f8300000000000000000000000000000000000000000000000000000000815260040160405180910390fd5b61039b83838361102d565b827f85e1543bf2f84fe80c6badbce3648c8539ad1df4d2b3d822938ca0538be727e660405160405180910390a2505050565b5f60015f8381526020019081526020015f20600101549050919050565b6103f3826103cd565b6103fc816111eb565b61040683836111ff565b50505050565b6104146112e8565b73ffffffffffffffffffffffffffffffffffffffff168173ffffffffffffffffffffffffffffffffffffffff1614610478576040517f6697b23200000000000000000000000000000000000000000000000000000000815260040160405180910390fd5b61048282826112ef565b505050565b5f60015f8481526020019081526020015f205f015f8373ffffffffffffffffffffffffffffffffffffffff1673ffffffffffffffffffffffffffffffffffffffff1681526020019081526020015f205f9054906101000a900460ff16905092915050565b5f801b81565b5f60035f8381526020019081526020015f206040518060a00160405290815f8201805480602002602001604051908101604052809291908181526020015f905b828210156105d9578382905f5260205f2001805461054e90612987565b80601f016020809104026020016040519081016040528092919081815260200182805461057a90612987565b80156105c55780601f1061059c576101008083540402835291602001916105c5565b820191905f5260205f20905b8154815290600101906020018083116105a857829003601f168201915b505050505081526020019060010190610531565b5050505081526020016001820180546105f190612987565b80601f016020809104026020016040519081016040528092919081815260200182805461061d90612987565b80156106685780601f1061063f57610100808354040283529160200191610668565b820191905f5260205f20905b81548152906001019060200180831161064b57829003601f168201915b5050505050815260200160028201805461068190612987565b80601f01602080910402602001604051908101604052809291908181526020018280546106ad90612987565b80156106f85780601f106106cf576101008083540402835291602001916106f8565b820191905f5260205f20905b8154815290600101906020018083116106db57829003601f168201915b50505050508152602001600382015f9054906101000a900460ff161515151581526020016003820160019054906101000a900460ff161515151581525050905060011515816060015115150361078557816040517f0a94610200000000000000000000000000000000000000000000000000000000815260040161077c9190612704565b60405180910390fd5b610791815f01516113d9565b505050565b5f801b6107a2816111eb565b8160025f6101000a81548160ff021916908360ff1602179055507f43366179823bb19cb50ce666a776b514a33123a8bec7391ebbab15b8e772510e826040516107eb91906129c6565b60405180910390a15050565b610800826103cd565b610809816111eb565b61081383836112ef565b50505050565b80600160ff165f808373ffffffffffffffffffffffffffffffffffffffff1673ffffffffffffffffffffffffffffffffffffffff1681526020019081526020015f205f9054906101000a900460ff1660ff16036108ad57806040517f7c9af9da0000000000000000000000000000000000000000000000000000000081526004016108a491906129ee565b60405180910390fd5b5f73ffffffffffffffffffffffffffffffffffffffff168173ffffffffffffffffffffffffffffffffffffffff160361091d57806040517f28cd344600000000000000000000000000000000000000000000000000000000815260040161091491906129ee565b60405180910390fd5b60015f808373ffffffffffffffffffffffffffffffffffffffff1673ffffffffffffffffffffffffffffffffffffffff1681526020019081526020015f205f6101000a81548160ff021916908360ff1602179055505f8290505f60608273ffffffffffffffffffffffffffffffffffffffff1663368b87726040518060400160405280600c81526020017f48656c6c6f204e6562756c6100000000000000000000000000000000000000008152506040518263ffffffff1660e01b81526004016109e79190612a59565b5f604051808303815f87803b1580156109fe575f80fd5b505af1925050508015610a0f575060015b610a82573d805f8114610a3d576040519150601f19603f3d011682016040523d82523d5f602084013e610a42565b606091505b507fdad6d4539d9d1a8a2f7a6b831a9d8a03f217a5356160f57c27af2c8f436014453382604051610a74929190612a79565b60405180910390a150610a91565b8180610a8d90612add565b9250505b8273ffffffffffffffffffffffffffffffffffffffff1663ce6d41de6040518163ffffffff1660e01b81526004015f60405180830381865afa925050508015610afc57506040513d5f823e3d601f19601f82011682018060405250810190610af99190612bc2565b60015b610b6f573d805f8114610b2a576040519150601f19603f3d011682016040523d82523d5f602084013e610b2f565b606091505b507f69a9f48b3b7b3ddaec9b84a348c42ff925ff034498b45d3bda4ad06bbb20215d3382604051610b61929190612a79565b60405180910390a150610b82565b8091508280610b7d90612add565b935050505b6040518060400160405280600c81526020017f48656c6c6f204e6562756c61000000000000000000000000000000000000000081525080519060200120818051906020012014610c41577f50008d270875e1827b24ac70e7ab3f83ae6f196594b8d277562a1751e2158c8033826040518060400160405280600c81526020017f48656c6c6f204e6562756c610000000000000000000000000000000000000000815250604051610c3493929190612c09565b60405180910390a1610c50565b8180610c4c90612add565b9250505b600260ff168210610dfb575f600567ffffffffffffffff811115610c7757610c7661251e565b5b604051908082528060200260200182016040528015610caa57816020015b6060815260200190600190039081610c955790505b50905033604051602001610cbe9190612c91565b604051602081830303815290604052815f81518110610ce057610cdf612cab565b5b6020026020010181905250662386f26fc10000604051602001610d039190612d0c565b60405160208183030381529060405281600181518110610d2657610d25612cab565b5b60200260200101819052506001604051602001610d439190612d46565b60405160208183030381529060405281600281518110610d6657610d65612cab565b5b602002602001018190525082604051602001610d829190612d46565b60405160208183030381529060405281600381518110610da557610da4612cab565b5b60200260200101819052505f604051602001610dc19190612da5565b60405160208183030381529060405281600481518110610de457610de3612cab565b5b6020026020010181905250610df8816113d9565b50505b5050505050565b6003602052805f5260405f205f91509050806001018054610e2290612987565b80601f0160208091040260200160405190810160405280929190818152602001828054610e4e90612987565b8015610e995780601f10610e7057610100808354040283529160200191610e99565b820191905f5260205f20905b815481529060010190602001808311610e7c57829003601f168201915b505050505090806002018054610eae90612987565b80601f0160208091040260200160405190810160405280929190818152602001828054610eda90612987565b8015610f255780601f10610efc57610100808354040283529160200191610f25565b820191905f5260205f20905b815481529060010190602001808311610f0857829003601f168201915b505050505090806003015f9054906101000a900460ff16908060030160019054906101000a900460ff16905084565b5f801b610f60816111eb565b81600260016101000a81548167ffffffffffffffff021916908367ffffffffffffffff1602179055507fbe52775d585b3f64e69cd016f03aab2112db9d9d73fbe6564e5b3e906d4bd99282604051610fb89190612dce565b60405180910390a15050565b5f7f01ffc9a7000000000000000000000000000000000000000000000000000000007bffffffffffffffffffffffffffffffffffffffffffffffffffffffff1916827bffffffffffffffffffffffffffffffffffffffffffffffffffffffff1916149050919050565b5f60035f8581526020019081526020015f2090508060030160019054906101000a900460ff1661109457836040517fbdf633b000000000000000000000000000000000000000000000000000000000815260040161108b9190612704565b60405180910390fd5b5f60ff16835111156110f057828160010190816110b19190612f84565b507fc5887c3a7517acc0acd968bc468487f448db79c5166d674e240596481fff0bba84846040516110e3929190613053565b60405180910390a16111e5565b818160020190816111019190612f84565b50630f13c67860e01b7bffffffffffffffffffffffffffffffffffffffffffffffffffffffff191682611133906130a4565b7bffffffffffffffffffffffffffffffffffffffffffffffffffffffff1916036111ab576001816003015f6101000a81548160ff0219169083151502179055507fccb1b1750f117a3ec1f2e51faf150813a0e31642b2151f2da4f07f815cfd49d4826040516111a2919061310a565b60405180910390a15b7f6131c7f07c457f6a34400bf0203a068039f4da56588c6f6f2eaaa5e34848f42e84836040516111dc929190613053565b60405180910390a15b50505050565b6111fc816111f76112e8565b6115ee565b50565b5f61120a8383610487565b6112de576001805f8581526020019081526020015f205f015f8473ffffffffffffffffffffffffffffffffffffffff1673ffffffffffffffffffffffffffffffffffffffff1681526020019081526020015f205f6101000a81548160ff02191690831515021790555061127b6112e8565b73ffffffffffffffffffffffffffffffffffffffff168273ffffffffffffffffffffffffffffffffffffffff16847f2f8788117e7eff1d82e926ec794901d17c78024a50270940304540a733656f0d60405160405180910390a4600190506112e2565b5f90505b92915050565b5f33905090565b5f6112fa8383610487565b156113cf575f60015f8581526020019081526020015f205f015f8473ffffffffffffffffffffffffffffffffffffffff1673ffffffffffffffffffffffffffffffffffffffff1681526020019081526020015f205f6101000a81548160ff02191690831515021790555061136c6112e8565b73ffffffffffffffffffffffffffffffffffffffff168273ffffffffffffffffffffffffffffffffffffffff16847ff6391f5c32d9c69d2a47ea670b442974b53935d1edc7fd64eb21e047a839171b60405160405180910390a4600190506113d3565b5f90505b92915050565b5f6113e2612296565b61140360405180602001604052805f8152508261163f90919063ffffffff16565b61143c60025f9054906101000a900460ff16600260019054906101000a900467ffffffffffffffff168361164f9092919063ffffffff16565b5f8351111561145957611458838261175c90919063ffffffff16565b5b6114cd611465826117a3565b7f00000000000000000000000000000000000000000000000000000000000000007f00000000000000000000000000000000000000000000000000000000000000007f0000000000000000000000000000000000000000000000000000000000000000611ba8565b91506040518060a0016040528084815260200160405180602001604052805f815250815260200160405180602001604052805f81525081526020015f151581526020016001151581525060035f8481526020019081526020015f205f820151815f019080519060200190611542929190612305565b5060208201518160010190816115589190612f84565b50604082015181600201908161156e9190612f84565b506060820151816003015f6101000a81548160ff02191690831515021790555060808201518160030160016101000a81548160ff0219169083151502179055509050507fc5a74ba8bc6c2c663acfba7f2b4bf8b6bdc4c5bab8c7dda9ae500f59d8db61ec826040516115e09190612704565b60405180910390a150919050565b6115f88282610487565b61163b5780826040517fe2517d3f00000000000000000000000000000000000000000000000000000000815260040161163292919061312a565b60405180910390fd5b5050565b61164b825f8084611c87565b5050565b5f61165b610100611d2d565b90506116a56040518060400160405280600681526020017f736c6f744944000000000000000000000000000000000000000000000000000081525082611d5290919063ffffffff16565b6116bb8360ff1682611d7a90919063ffffffff16565b6117036040518060400160405280600781526020017f76657273696f6e0000000000000000000000000000000000000000000000000081525082611d5290919063ffffffff16565b6117168282611d7a90919063ffffffff16565b60028460200190600281111561172f5761172e613151565b5b9081600281111561174357611742613151565b5b81525050805f01515f0151846080018190525050505050565b5f815103611796576040517ffe936cb700000000000000000000000000000000000000000000000000000000815260040160405180910390fd5b808260c001819052505050565b60605f6117b1610100611d2d565b90506117fb6040518060400160405280600c81526020017f636f64654c6f636174696f6e000000000000000000000000000000000000000081525082611d5290919063ffffffff16565b611823835f0151600281111561181457611813613151565b5b82611d8990919063ffffffff16565b61186b6040518060400160405280600881526020017f6c616e677561676500000000000000000000000000000000000000000000000081525082611d5290919063ffffffff16565b61189383604001515f81111561188457611883613151565b5b82611d8990919063ffffffff16565b6118db6040518060400160405280600681526020017f736f75726365000000000000000000000000000000000000000000000000000081525082611d5290919063ffffffff16565b6118f2836060015182611d5290919063ffffffff16565b5f8360a001515111156119a6576119476040518060400160405280600481526020017f617267730000000000000000000000000000000000000000000000000000000081525082611d5290919063ffffffff16565b61195081611dd8565b5f5b8360a001515181101561199b576119908460a00151828151811061197957611978612cab565b5b602002602001015183611d5290919063ffffffff16565b806001019050611952565b506119a581611e00565b5b5f8360800151511115611ae5575f60028111156119c6576119c5613151565b5b836020015160028111156119dd576119dc613151565b5b03611a14576040517fa80d31f700000000000000000000000000000000000000000000000000000000815260040160405180910390fd5b611a5c6040518060400160405280600f81526020017f736563726574734c6f636174696f6e000000000000000000000000000000000081525082611d5290919063ffffffff16565b611a8583602001516002811115611a7657611a75613151565b5b82611d8990919063ffffffff16565b611acd6040518060400160405280600781526020017f736563726574730000000000000000000000000000000000000000000000000081525082611d5290919063ffffffff16565b611ae4836080015182611e2890919063ffffffff16565b5b5f8360c00151511115611b9957611b3a6040518060400160405280600981526020017f627974657341726773000000000000000000000000000000000000000000000081525082611d5290919063ffffffff16565b611b4381611dd8565b5f5b8360c0015151811015611b8e57611b838460c001518281518110611b6c57611b6b612cab565b5b602002602001015183611e2890919063ffffffff16565b806001019050611b45565b50611b9881611e00565b5b805f01515f0151915050919050565b5f807f000000000000000000000000000000000000000000000000000000000000000073ffffffffffffffffffffffffffffffffffffffff1663461d27628688600188886040518663ffffffff1660e01b8152600401611c0c9594939291906131b8565b6020604051808303815f875af1158015611c28573d5f803e3d5ffd5b505050506040513d601f19601f82011682018060405250810190611c4c9190613224565b9050807f1131472297a800fee664d1d89cfa8f7676ff07189ecc53f80bbb5f4969099db860405160405180910390a280915050949350505050565b5f815103611cc1576040517f22ce3edd00000000000000000000000000000000000000000000000000000000815260040160405180910390fd5b82845f01906002811115611cd857611cd7613151565b5b90816002811115611cec57611ceb613151565b5b815250508184604001905f811115611d0757611d06613151565b5b90815f811115611d1a57611d19613151565b5b8152505080846060018190525050505050565b611d3561235c565b611d42815f015183611e50565b505f816020018181525050919050565b611d5f8260038351611ec6565b611d7581835f015161206690919063ffffffff16565b505050565b611d85825f83611ec6565b5050565b611daa60026005600660ff16901b17835f015161208290919063ffffffff16565b50611dd48282604051602001611dc0919061325e565b604051602081830303815290604052611e28565b5050565b611de38160046120e9565b600181602001818151611df69190613277565b9150818152505050565b611e0b8160076120e9565b600181602001818151611e1e91906132aa565b9150818152505050565b611e358260028351611ec6565b611e4b81835f015161206690919063ffffffff16565b505050565b611e5861237b565b5f602083611e66919061330a565b14611e9257602082611e78919061330a565b6020611e8491906132aa565b82611e8f9190613277565b91505b818360200181815250506040518084525f815282810160200181811015611eb7575f80fd5b80604052505082905092915050565b60178167ffffffffffffffff1611611f0057611efa8160058460ff16901b60ff1617845f015161208290919063ffffffff16565b50612061565b60ff8167ffffffffffffffff1611611f5c57611f32601860058460ff16901b17845f015161208290919063ffffffff16565b50611f568167ffffffffffffffff166001855f015161210e9092919063ffffffff16565b50612060565b61ffff8167ffffffffffffffff1611611fb957611f8f601960058460ff16901b17845f015161208290919063ffffffff16565b50611fb38167ffffffffffffffff166002855f015161210e9092919063ffffffff16565b5061205f565b63ffffffff8167ffffffffffffffff161161201857611fee601a60058460ff16901b17845f015161208290919063ffffffff16565b506120128167ffffffffffffffff166004855f015161210e9092919063ffffffff16565b5061205e565b612038601b60058460ff16901b17845f015161208290919063ffffffff16565b5061205c8167ffffffffffffffff166008855f015161210e9092919063ffffffff16565b505b5b5b5b505050565b61206e61237b565b61207a83838451612197565b905092915050565b61208a61237b565b5f835f01515190505f6001826120a09190613277565b9050846020015182106120c4576120c3856002836120be919061333a565b612274565b5b845160208382010185815381518311156120dc578282525b5050849250505092915050565b612109601f60058360ff16901b17835f015161208290919063ffffffff16565b505050565b61211661237b565b5f845f01515190505f818461212b9190613277565b905085602001518111156121505761214f8660028361214a919061333a565b612274565b5b5f60018561010061216191906134aa565b61216b91906132aa565b905086518281018783198251161781528151841115612188578382525b50508693505050509392505050565b61219f61237b565b82518211156121ac575f80fd5b5f845f01515190505f83826121c19190613277565b905085602001518111156121e6576121e5866002836121e0919061333a565b612274565b5b5f8087518051856020830101935080851115612200578482525b60208901925050505b6020861061224757805182526020826122229190613277565b91506020816122319190613277565b905060208661224091906132aa565b9550612209565b5f6001876020036101000a0390508019825116818451168181178552505050879450505050509392505050565b5f825f015190506122858383611e50565b506122908382612066565b50505050565b6040518060e001604052805f60028111156122b4576122b3613151565b5b81526020015f60028111156122cc576122cb613151565b5b81526020015f808111156122e3576122e2613151565b5b8152602001606081526020016060815260200160608152602001606081525090565b828054828255905f5260205f2090810192821561234b579160200282015b8281111561234a57825182908161233a9190612f84565b5091602001919060010190612323565b5b5090506123589190612394565b5090565b604051806040016040528061236f61237b565b81526020015f81525090565b6040518060400160405280606081526020015f81525090565b5b808211156123b3575f81816123aa91906123b7565b50600101612395565b5090565b5080546123c390612987565b5f825580601f106123d457506123f1565b601f0160209004905f5260205f20908101906123f091906123f4565b5b50565b5b8082111561240b575f815f9055506001016123f5565b5090565b5f604051905090565b5f80fd5b5f80fd5b5f7fffffffff0000000000000000000000000000000000000000000000000000000082169050919050565b61245481612420565b811461245e575f80fd5b50565b5f8135905061246f8161244b565b92915050565b5f6020828403121561248a57612489612418565b5b5f61249784828501612461565b91505092915050565b5f8115159050919050565b6124b4816124a0565b82525050565b5f6020820190506124cd5f8301846124ab565b92915050565b5f819050919050565b6124e5816124d3565b81146124ef575f80fd5b50565b5f81359050612500816124dc565b92915050565b5f80fd5b5f80fd5b5f601f19601f8301169050919050565b7f4e487b71000000000000000000000000000000000000000000000000000000005f52604160045260245ffd5b6125548261250e565b810181811067ffffffffffffffff821117156125735761257261251e565b5b80604052505050565b5f61258561240f565b9050612591828261254b565b919050565b5f67ffffffffffffffff8211156125b0576125af61251e565b5b6125b98261250e565b9050602081019050919050565b828183375f83830152505050565b5f6125e66125e184612596565b61257c565b9050828152602081018484840111156126025761260161250a565b5b61260d8482856125c6565b509392505050565b5f82601f83011261262957612628612506565b5b81356126398482602086016125d4565b91505092915050565b5f805f6060848603121561265957612658612418565b5b5f612666868287016124f2565b935050602084013567ffffffffffffffff8111156126875761268661241c565b5b61269386828701612615565b925050604084013567ffffffffffffffff8111156126b4576126b361241c565b5b6126c086828701612615565b9150509250925092565b5f602082840312156126df576126de612418565b5b5f6126ec848285016124f2565b91505092915050565b6126fe816124d3565b82525050565b5f6020820190506127175f8301846126f5565b92915050565b5f73ffffffffffffffffffffffffffffffffffffffff82169050919050565b5f6127468261271d565b9050919050565b6127568161273c565b8114612760575f80fd5b50565b5f813590506127718161274d565b92915050565b5f806040838503121561278d5761278c612418565b5b5f61279a858286016124f2565b92505060206127ab85828601612763565b9150509250929050565b5f60ff82169050919050565b6127ca816127b5565b81146127d4575f80fd5b50565b5f813590506127e5816127c1565b92915050565b5f60208284031215612800576127ff612418565b5b5f61280d848285016127d7565b91505092915050565b5f6020828403121561282b5761282a612418565b5b5f61283884828501612763565b91505092915050565b5f81519050919050565b5f82825260208201905092915050565b8281835e5f83830152505050565b5f61287382612841565b61287d818561284b565b935061288d81856020860161285b565b6128968161250e565b840191505092915050565b5f6080820190508181035f8301526128b98187612869565b905081810360208301526128cd8186612869565b90506128dc60408301856124ab565b6128e960608301846124ab565b95945050505050565b5f67ffffffffffffffff82169050919050565b61290e816128f2565b8114612918575f80fd5b50565b5f8135905061292981612905565b92915050565b5f6020828403121561294457612943612418565b5b5f6129518482850161291b565b91505092915050565b7f4e487b71000000000000000000000000000000000000000000000000000000005f52602260045260245ffd5b5f600282049050600182168061299e57607f821691505b6020821081036129b1576129b061295a565b5b50919050565b6129c0816127b5565b82525050565b5f6020820190506129d95f8301846129b7565b92915050565b6129e88161273c565b82525050565b5f602082019050612a015f8301846129df565b92915050565b5f81519050919050565b5f82825260208201905092915050565b5f612a2b82612a07565b612a358185612a11565b9350612a4581856020860161285b565b612a4e8161250e565b840191505092915050565b5f6020820190508181035f830152612a718184612a21565b905092915050565b5f604082019050612a8c5f8301856129df565b8181036020830152612a9e8184612869565b90509392505050565b7f4e487b71000000000000000000000000000000000000000000000000000000005f52601160045260245ffd5b5f819050919050565b5f612ae782612ad4565b91507fffffffffffffffffffffffffffffffffffffffffffffffffffffffffffffffff8203612b1957612b18612aa7565b5b600182019050919050565b5f67ffffffffffffffff821115612b3e57612b3d61251e565b5b612b478261250e565b9050602081019050919050565b5f612b66612b6184612b24565b61257c565b905082815260208101848484011115612b8257612b8161250a565b5b612b8d84828561285b565b509392505050565b5f82601f830112612ba957612ba8612506565b5b8151612bb9848260208601612b54565b91505092915050565b5f60208284031215612bd757612bd6612418565b5b5f82015167ffffffffffffffff811115612bf457612bf361241c565b5b612c0084828501612b95565b91505092915050565b5f606082019050612c1c5f8301866129df565b8181036020830152612c2e8185612a21565b90508181036040830152612c428184612a21565b9050949350505050565b5f8160601b9050919050565b5f612c6282612c4c565b9050919050565b5f612c7382612c58565b9050919050565b612c8b612c868261273c565b612c69565b82525050565b5f612c9c8284612c7a565b60148201915081905092915050565b7f4e487b71000000000000000000000000000000000000000000000000000000005f52603260045260245ffd5b5f8160c01b9050919050565b5f612cee82612cd8565b9050919050565b612d06612d01826128f2565b612ce4565b82525050565b5f612d178284612cf5565b60088201915081905092915050565b5f819050919050565b612d40612d3b82612ad4565b612d26565b82525050565b5f612d518284612d2f565b60208201915081905092915050565b5f8160f81b9050919050565b5f612d7682612d60565b9050919050565b5f612d8782612d6c565b9050919050565b612d9f612d9a826124a0565b612d7d565b82525050565b5f612db08284612d8e565b60018201915081905092915050565b612dc8816128f2565b82525050565b5f602082019050612de15f830184612dbf565b92915050565b5f819050815f5260205f209050919050565b5f6020601f8301049050919050565b5f82821b905092915050565b5f60088302612e437fffffffffffffffffffffffffffffffffffffffffffffffffffffffffffffffff82612e08565b612e4d8683612e08565b95508019841693508086168417925050509392505050565b5f819050919050565b5f612e88612e83612e7e84612ad4565b612e65565b612ad4565b9050919050565b5f819050919050565b612ea183612e6e565b612eb5612ead82612e8f565b848454612e14565b825550505050565b5f90565b612ec9612ebd565b612ed4818484612e98565b505050565b5b81811015612ef757612eec5f82612ec1565b600181019050612eda565b5050565b601f821115612f3c57612f0d81612de7565b612f1684612df9565b81016020851015612f25578190505b612f39612f3185612df9565b830182612ed9565b50505b505050565b5f82821c905092915050565b5f612f5c5f1984600802612f41565b1980831691505092915050565b5f612f748383612f4d565b9150826002028217905092915050565b612f8d82612841565b67ffffffffffffffff811115612fa657612fa561251e565b5b612fb08254612987565b612fbb828285612efb565b5f60209050601f831160018114612fec575f8415612fda578287015190505b612fe48582612f69565b86555061304b565b601f198416612ffa86612de7565b5f5b8281101561302157848901518255600182019150602085019450602081019050612ffc565b8683101561303e578489015161303a601f891682612f4d565b8355505b6001600288020188555050505b505050505050565b5f6040820190506130665f8301856126f5565b81810360208301526130788184612869565b90509392505050565b5f819050602082019050919050565b5f61309b8251612420565b80915050919050565b5f6130ae82612841565b826130b884613081565b90506130c381613090565b92506004821015613103576130fe7fffffffff0000000000000000000000000000000000000000000000000000000083600403600802612e08565b831692505b5050919050565b5f6020820190508181035f8301526131228184612869565b905092915050565b5f60408201905061313d5f8301856129df565b61314a60208301846126f5565b9392505050565b7f4e487b71000000000000000000000000000000000000000000000000000000005f52602160045260245ffd5b5f61ffff82169050919050565b6131948161317e565b82525050565b5f63ffffffff82169050919050565b6131b28161319a565b82525050565b5f60a0820190506131cb5f830188612dbf565b81810360208301526131dd8187612869565b90506131ec604083018661318b565b6131f960608301856131a9565b61320660808301846126f5565b9695505050505050565b5f8151905061321e816124dc565b92915050565b5f6020828403121561323957613238612418565b5b5f61324684828501613210565b91505092915050565b61325881612ad4565b82525050565b5f6020820190506132715f83018461324f565b92915050565b5f61328182612ad4565b915061328c83612ad4565b92508282019050808211156132a4576132a3612aa7565b5b92915050565b5f6132b482612ad4565b91506132bf83612ad4565b92508282039050818111156132d7576132d6612aa7565b5b92915050565b7f4e487b71000000000000000000000000000000000000000000000000000000005f52601260045260245ffd5b5f61331482612ad4565b915061331f83612ad4565b92508261332f5761332e6132dd565b5b828206905092915050565b5f61334482612ad4565b915061334f83612ad4565b925082820261335d81612ad4565b9150828204841483151761337457613373612aa7565b5b5092915050565b5f8160011c9050919050565b5f808291508390505b60018511156133d0578086048111156133ac576133ab612aa7565b5b60018516156133bb5780820291505b80810290506133c98561337b565b9450613390565b94509492505050565b5f826133e857600190506134a3565b816133f5575f90506134a3565b816001811461340b576002811461341557613444565b60019150506134a3565b60ff84111561342757613426612aa7565b5b8360020a91508482111561343e5761343d612aa7565b5b506134a3565b5060208310610133831016604e8410600b84101617156134795782820a90508381111561347457613473612aa7565b5b6134a3565b6134868484846001613387565b9250905081840481111561349d5761349c612aa7565b5b81810290505b9392505050565b5f6134b482612ad4565b91506134bf83612ad4565b92506134ec7fffffffffffffffffffffffffffffffffffffffffffffffffffffffffffffffff84846133d9565b90509291505056fea2646970667358221220877dc754dcd73f6651658a1f6ad9d2e55e5f74a392c7fe8a1225d79eaec6539d64736f6c634300081a0033","linkReferences":{}},"methodIdentifiers":{"DEFAULT_ADMIN_ROLE()":"a217fddf","getRoleAdmin(bytes32)":"248a9ca3","grantRole(bytes32,address)":"2f2ff15d","handleOracleFulfillment(bytes32,bytes,bytes)":"0ca76175","hasRole(bytes32,address)":"91d14854","renounceRole(bytes32,address)":"36568abe","retryFailedRequest(bytes32)":"bda54ca7","revokeRole(bytes32,address)":"d547741f","s_requestStorage(bytes32)":"e15e017a","setDonHostedSecretsSlotId(uint8)":"c27e26cb","setDonHostedSecretsVersion(uint64)":"fdb742d9","supportsInterface(bytes4)":"01ffc9a7","validateStorage(address)":"d9dee3c2"},"id":54}